:03000000020800F3
:0C080000787FE4F6D8FD758117020847E8
:0C09F7000A0A3F065B4F666D7D07FF6734
:1009BB00E4FDFCC3ED9FEE6480F8EC648098501668
:1009CB00758BFD758D4BD28E308FFDC28EC28F0D08
:0609DB00BD00010C80DDEF
:0109E10022F3
:0909E200740A2FF8E6F5A07F2C41
:0C09EB00D3EF6480948040031F80F5224D
:10091700AB09AA087C007D0AAF03AE0212088C8CD3
:10092700148D157C007D0AAF03AE0212088CAA064F
:10093700AB077C007D0A12088C8C168D177C007D16
:100947000AAF03AE0212088CAA06AB077C007D0A29
:1009570012088C8D82AE02AF037C007D0A12088CD0
:10096700C2B31209E2D2B3C2B2AF821209E2D2B263
:10097700C2B1740A25171209E5D2B1C2B0740A25AB
:06098700151209E5D2B0D3
:01098D002247
:10098E00E4F5A0F5B075900130901D0509E50970EC
:10099E00020508C39410E508648094A74005E4F5A9
:0D09AE0008F5093090E280FB12091780DB8C
:10080C0002098EE493A3F8E493A34003F68001F26B
:10081C0008DFF48029E493A3F85407240CC8C333ED
:10082C00C4540F4420C8834004F456800146F6DFBC
:10083C00E4800B01020408102040809009F7E47E4C
:10084C00019360BCA3FF543F30E509541FFEE493B1
:10085C00A360010ECF54C025E060A840B8E493A378
:10086C00FAE493A3F8E493A3C8C582C8CAC583CAA3
:10087C00F0A3C8C582C8CAC583CADFE9DEE780BE5B
:010A030000F2
:10088C00C2D5EC30E709B2D5E4C39DFDE49CFCEE87
:10089C0030E715B2D5E4C39FFFE49EFE1208C2C335
:1008AC00E49DFDE49CFC80031208C230D507C3E430
:0608BC009FFFE49EFE22F6
:1008C200BC000BBE0029EF8DF084FFADF022E4CC1A
:1008D200F875F008EF2FFFEE33FEEC33FCEE9DECE3
:1008E200984005FCEE9DFE0FD5F0E9E4CEFD22ED29
:1008F200F8F5F0EE8420D21CFEADF075F008EF2F73
:10090200FFED33FD4007985006D5F0F222C398FD63
:050912000FD5F0EA2200
:00000001FF
